:020000040800F2
:10000000300700202902000893220008F51A000892
:10001000912200085B0400086D2B0008000000001E
:100020000000000000000000000000001125000892
:10003000490500080000000095220008E12500089D
:10004000430200084302000843020008430200087C
:10005000430200084302000843020008430200086C
:10006000430200084302000843020008430200085C
:10007000430200084302000843020008430200084C
:10008000430200084302000843020008430200083C
:10009000430200084302000843020008430200082C
:1000A000430200084302000843020008430200081C
:1000B000430200084302000843020008430200080C
:1000C000430200084302000843020008B523000869
:1000D00043020008430200084302000843020008EC
:1000E00043020008430200084302000843020008DC
:1000F00043020008430200084302000843020008CC
:1001000043020008430200084302000843020008BB
:1001100043020008430200084302000843020008AB
:10012000430200084302000843020008430200089B
:10013000430200084302000843020008430200088B
:10014000430200084302000843020008430200087B
:10015000430200084302000843020008430200086B
:10016000430200084302000843020008430200085B
:100170004302000843020008430200080000000098
:10018000430200084302000800F002F800F03CF8C7
:100190000AA090E8000C82448344AAF10107DA45E2
:1001A00001D100F031F8AFF2090EBAE80F0013F0F8
:1001B000010F18BFFB1A43F001031847184F000046
:1001C000384F0000103A24BF78C878C1FAD85207D7
:1001D00024BF30C830C144BF04680C6070470000C1
:1001E0000023002400250026103A28BF78C1FBD840
:1001F000520728BF30C148BF0B6070471FB502F0DF
:100200009FFD1FBD10B510BD00F0EEF81146FFF7C1
:10021000F5FF02F071FD00F00CF903B4FFF7F2FFF7
:1002200003BC00F013F90000094880470948004763
:10023000FEE7FEE7FEE7FEE7FEE7FEE7FEE7FEE796
:10024000FEE7FEE704480549054A064B70470000F3
:1002500075260008890100083001002030070020C1
:10026000300300203003002053EA020C00F06980C4
:100270002DE9F04B4FF00006002B1FBFB3FA83F5BA
:1002800003FA05F424FA05F65E4012BF1643B2FAEB
:1002900082F502FA05F4C5F120051EBF22FA05FC1D
:1002A00044EA0C04203556EA044C4FEA144418BFC3
:1002B000641C4FF000084FF00009904271EB030CF2
:1002C00039D3002919BFB1FA81F701FA07F6B0FA5C
:1002D00080F700FA07F6C7F120071EBF20FA07FCD7
:1002E00046EA0C062037B6FBF4FCA7EB0507103FE7
:1002F00007F01F0BCBF120060CFA0BFB2CFA06F6CD
:1003000044BFB3460026202FA4BF5E464FF0000B2B
:100310005BEA060C08BF4FF0010B19EB0B09ABFBB6
:10032000027C48EB0608C01B06FB02CC0BFB03CC8F
:1003300071EB0C01C1E70B46024641464846BDE859
:10034000F08B13B54FF000004FF00001AFF30080C9
:10035000BDE81C40704710B5431C02E010F8011BBB
:1003600071B18107FAD14FF0013202C88C1A8C4367
:1003700014EAC211F9D0C01A0A0603D0C01E10BD7B
:10038000C01A10BD0A0401D0801E10BD0902FCD0A5
:10039000401E10BD4FF0000200B51346944696462D
:1003A000203922BFA0E80C50A0E80C50B1F1200188
:1003B000BFF4F7AF090728BFA0E80C5048BF0CC036
:1003C0005DF804EB890028BF40F8042B08BF704794
:1003D00048BF20F8022B11F0804F18BF00F8012B06
:1003E0007047704770477047754600F02BF8AE466F
:1003F00005006946534620F00700854618B020B531
:10040000FFF720FFBDE820404FF000064FF0000747
:100410004FF000084FF0000B21F00701AC46ACE8AC
:10042000C009ACE8C009ACE8C009ACE8C0098D4619
:10043000704710B50446AFF300802046BDE8104079
:10044000FFF7EBBE00487047D0000020014918209C
:10045000ABBEFEE7260002007047FEE7FEB51CA01B
:1004600000F074F810251FA0CDE9000500244FF618
:10047000E07633461F221E2102940A2002F04AF839
:1004800021A0CDE9000533461F22322102940A2023
:1004900002F040F8182022A1CDE9001001243346D3
:1004A0001F22029446210A2002F034F8202022A1C3
:1004B000CDE9001033461F22029464210A2002F085
:1004C00029F8BDE8FE404FF4966002F0B3BB00008F
:1004D000B2E2CAD4363AD6D0CEC4CFD4CABEB2E283
:1004E000CAD4000031365831363AC8ABB6AFB5E79A
:1004F000D7D3BCBCCAF5D3D0CFDEB9ABCBBEBBB66D
:10050000D3ADC4FA0000000031365831363A576591
:100510006C636F6D65C8ABB6AFB5E7D7D3000000AD
:1005200032345832343AC9EEDBDACAD0D6D0CEC42F
:10053000B2E2CAD40000000033325833323AD7D680
:10054000CCE5B2E2CAD40000704700002DE9FE43BA
:1005500080464FF6FF75284601F0CEFA164C1F264E
:100560000096002122881423084601F077FB0096AC
:1005700063882288A3F1140081B2002001F06EFB91
:100580000E48012610270580CDF80080CDE90176C0
:100590001F232A460221002000F044FB08A0CDE9D9
:1005A0000007029660881F23123881B22A46002075
:1005B00000F038FBBDE8FE83C00000201C000020D6
:1005C000687474703A2F2F7777772E6C636477692D
:1005D0006B692E636F6D00002DE9F0479846DDE9E9
:1005E000085491460E46074601F0C0FA23462A46B3
:1005F0004146484601F0BAFA33463A462146284673
:10060000BDE8F04701F0B2BAFEB524A0FFF79EFFA7
:100610000C2527A0CDE9000500244FF6E0773B46E6
:100620001F221E2102940A2001F074FF01262BA034
:100630008DE861003B461F222D210A2001F06AFF50
:1006400031A0CDE900053B461F223C2102940A203F
:1006500001F060FF102534A0CDE900053B461F22C4
:10066000502102940A2001F055FF3AA08DE8610064
:100670003B461F2264210A2001F04CFF40A0CDE937
:1006800000053B461F22782102940A2001F042FF18
:10069000BDE8FE404FF4966002F0CCBAB2E2CAD494
:1006A000353AD3A2CEC4CFD4CABEB2E2CAD4000077
:1006B000365831323A6162636465666768696A6BAD
:1006C0006C6D6E6F707172737475767778797A303D
:1006D000313233343536373839000000365831324C
:1006E0003A4142434445464748494A4B4C4D4E4F98
:1006F000505152535455565758595A303132333459
:100700003536373839000000365831323A7E2140CC
:100710002324255E262A28295F2B7B7D3A3C3E3FF9
:100720002F7C2D2B2E000000385831363A61626341
:100730006465666768696A6B6C6D6E6F7071727301
:100740007475767778797A30313233343536373894
:1007500039000000385831363A4142434445464753
:1007600048494A4B4C4D4E4F505152535455565791
:1007700058595A3031323334353637383900000061
:10078000385831363A7E21402324255E262A2829EE
:100790005F2B7B7D3A3C3E3F2F7C2D2B2E000000B3
:1007A00072B6FEE72DE9F04F89B01D461446DDE92B
:1007B00012324FF0000BCDF804B0A94205D90E4615
:1007C0002946354606462046344696B2B54204D9F7
:1007D0002A4635469EB223463446A94205D90E46DE
:1007E000294635460646204634461FFA82F80E460C
:1007F000414518D10246844201D2204601E000D989
:10080000224699B2814201D2084602E0914200D9C3
:100810000A463749334609880091194601F01EFA05
:1008200009B0BDE8F08F211A0791A91B06918146F6
:1008300099B2A1EB09000290A8EB06000390081BF7
:100840000490A8EB05000590454501D1AA4602E0B9
:10085000681E1FFA80FA374620E00698039A9BFB31
:10086000F0F101EB09000199079B91FBF2F202EB19
:1008700009018AB29B44DDE9011380B21944019158
:10088000904202D9014610460A4619493B4609885A
:100890000091194601F0E2F97F1CBFB25745DCD93F
:1008A0000499781B00FB01FA0298BD1B45431CE02C
:1008B0000599049B9AFBF1F00399204495FBF1F212
:1008C00002EB09018AB2029980B29A440D44904227
:1008D00002D9014610460A4605493B46098800915F
:1008E000194601F0BBF97F1CBFB24745E0D997E735
:1008F0001C0000202DE9FF4F83B004463E20CDE9C7
:100900000040DDF844B000274FF080093148109ACC
:1009100007EB071110F811301278934240D100EB29
:10092000410A10989AF801104078814238D1049811
:1009300004990F3083B204F10F0082B2204601F017
:10094000ADFA002600250AEB060800BFBBF1000F38
:1009500013D021490598088098F8021029FA05F06B
:10096000014203D02046049901F04EF9641C00981E
:10097000A4B2201A102826D00AE098F8021029FA0A
:1009800005F0014201D0059800E0069801F09EFBB9
:100990006D1CEDB2082DD9D3761CF6B2202ED1D322
:1009A0007F1C0198BFB28742B0D30C4841880088B1
:1009B00007B0491EBDE8F04F401E8BB282B2002145
:1009C000084601F06BBA0498009C401C80B2049069
:1009D000E2E70000D03700081C000020C000002023
:1009E0002DE9FF4F83B004460720CDE90040DDF834
:1009F00044B000274FF0800907EB870000EB471158
:100A00003048109A10F811301278934240D100EB20
:100A1000410A10989AF801104078814238D1049820
:100A20000499173083B204F1170082B2204601F016
:100A300035FA002600250AEB060800BFBBF1000FBF
:100A400013D021490598088098F8021029FA05F07A
:100A5000014203D02046049901F0D6F8641C0098A6
:100A6000A4B2201A182826D00AE098F8021029FA11
:100A700005F0014201D0059800E0069801F026FB40
:100A80006D1CEDB2082DD9D3761CF6B2482ED1D309
:100A90007F1C0198BFB28742AED30C4841880088C2
:100AA00007B0491EBDE8F04F401E8BB282B2002154
:100AB000084601F0F3B90498009C401C80B20490F1
:100AC000E2E700000C4000081C000020C0000020ED
:100AD0002DE9FF4F83B004460420CDE90040DDF846
:100AE00044B000274FF080093148109A07EB871176
:100AF00010F811301278934240D100EB410A10985F
:100B00009AF801104078814238D1049804991F3036
:100B100083B204F11F0082B2204601F0BFF9002623
:100B200000250AEB060800BFBBF1000F13D02149D6
:100B30000598088098F8021029FA05F0014203D0C0
:100B40002046049901F060F8641C0098A4B2201AB1
:100B5000202826D00AE098F8021029FA05F0014270
:100B600001D0059800E0069801F0B0FA6D1CEDB2D6
:100B7000082DD9D3761CF6B2802ED1D37F1C0198D4
:100B8000BFB28742B0D30C484188008807B0491EE5
:100B9000BDE8F04F401E8BB282B20021084601F042
:100BA0007DB90498009C401C80B20490E2E70000EC
:100BB000124200081C000020C000002010B514469E
:100BC00001F068F92046BDE8104001F07FBA00004E
:100BD00070B5154601F1270293B200F1270292B2D7
:100BE00001F05CF900244FF4C86600BF05EB440136
:100BF00015F81400497840EA012001F067FA641CF6
:100C0000B442F3DB064841880088491E401EBDE817
:100C100070408BB282B20021084601F03FB900005B
:100C2000C00000202DE9FE431F46DDE90A4690463C
:100C3000894620460C9DFFF78EFB0A4980B2404250
:100C40000988CDE9004601EBC00000EBD070C0F38D
:100C50004F003B4642464946029501F05BFCBDE829
:100C6000FE830000C000002090F83510022903D058
:100C70008021416501207047052180F8351000680A
:100C8000016821F001010160002070472DE9F84F53
:100C9000DFF8BCA10022012503264FF00F090AF15D
:100CA000040BAAF1040E00BF0B6805FA02F42340FE
:100CB000A34270D10F7907F00307012F01D0022F53
:100CC00016D187684FEA420806FA08FC27EA0C07A3
:100CD000D1F80CC00CFA08FC4CEA070CC0F808C0AC
:100CE0004768A7430C79C4F3001494403C43446024
:100CF0000C79E443A4070AD0C4684FEA420C06FA10
:100D00000CF7BC438F6807FA0CF72743C7600C79D0
:100D100004F00304022C12D1D40800EB840CDCF89C
:100D200020405707FF0E09FA07F824EA0804D1F813
:100D3000108008FA07F848EA0408CCF82080046814
:100D40004FEA420C06FA0CF7BC430F7907F0030791
:100D500007FA0CF7274307604C6814F4403F70D043
:100D60003C4C276847F480472760246822F003073B
:100D700004F480440094384C07EB040CDCF8084879
:100D800097074FEA177809FA08F7BC43334FB84280
:100D900002D1002724E054E0314FB84201D10127AD
:100DA0001EE0304FB84201D1022719E02E4FB84261
:100DB00001D1032714E02D4FB84201D104270FE0E1
:100DC0002B4FB84201D105270AE02A4FB84201D182
:100DD000062705E0284FB84201D1072700E0082781
:100DE00007FA08F72743CCF80878DAF800405746A6
:100DF000D1F804C09C435FEACC2C00D51C433C6076
:100E0000DBF800405F46D1F804C09C435FEA8C2CBD
:100E100000D51C433C60DEF800407746D1F804C0A2
:100E20009C435FEA8C3C00D51C433C60084F083F64
:100E30003C68D1F804C09C435FEACC3C00D51C431D
:100E40003C60521C102AFFF42FAFBDE8F88F000061
:100E5000083C01404438024000300140000002409C
:100E60000004024000080240000C02400010024052
:100E70000014024000180240001C02400AB18161C7
:100E800070470904FBE700000148806870470000D4
:100E90000C0000200248816802781144816070478C
:100EA0000C0000200B4810B5016841F4007101608E
:100EB000016841F480610160016841F48071016062
:100EC000032000F06FF80F2000F006F800F024F87F
:100ED000002010BD003C024070B50D4D04464FF49B
:100EE0007A712878B1FBF0F00A490968B1FBF0F09B
:100EF00000F0B7FC48B9102C07D200222146501E42
:100F000000F030F800206C6070BD012070BD000062
:100F10000C000020180000200A4808B5016841F4C0
:100F200080410160006800F4804000900548001F87
:100F3000016841F080510160006800F0805000902D
:100F400008BD000044380240002809DB00F01F0201
:100F5000012191404009800000F1E020C0F800111B
:100F600070470000F0B40E4B1B680C46C3F302231D
:100F7000C3F10705042D00D90425191D072901D245
:100F8000002300E0DB1E012606FA05F1491E214080
:100F900099409E40761E16403143F0BC01F0E7BDFB
:100FA0000CED00E0064900F0070208684FF6FF0369
:100FB000184040EA0220034A1043086070470000CE
:100FC0000CED00E00000FA052DE9F0470E460500A3
:100FD00065D0DFF81481D8F80000F7B200F0070000
:100FE000B04207D288F80070D8F8000000F007007F
:100FF000B04254D128683D4C810712D5400703D533
:10100000206840F4E05020602878000703D520686D
:1010100040F4604020602068A96820F0F000084398
:1010200020602878C0072DD0304968680839012829
:1010300012D0022813D0032811D00968890700298B
:101040002DDA216821F0030101432160FFF71CFF25
:10105000814641F2883A0EE009688903EFE70968A2
:101060008901ECE7FFF710FFA0EB0901514502D918
:101070000320BDE8F0872068696800F00C00B0EB41
:10108000810FEFD1D8F80010404601F00701B142BE
:1010900007D90770006800F00700B04201D00120B6
:1010A000E7E72878400705D52068E96820F4E05094
:1010B000084320602878000706D52068296920F4B5
:1010C000604040EAC100206000F018F82168084A3A
:1010D000C1F30311515CC840064908600648006826
:1010E000FFF7FAFE0020C4E7003C02400838024047
:1010F0005C2D00081800002010000020154810B5D5
:10110000006810F00C02144813D04110042A0FD0CC
:10111000082A0ED10F4C241F2268236802F03F02D8
:101120005B0207D52068C0F38810A0FB010106E030
:10113000084610BD2168C1F38811A1FB00010023FE
:10114000FFF792F82168C1F30141491C4900B0FB47
:10115000F1F010BD083802400024F4002DE9F84FEA
:1011600004006ED02078DFF84C93C007A9F1040585
:101170004AD009F104000168C1F38101012908D0B6
:101180000068C0F3810002280AD1D9F800004002AB
:1011900006D52868800337D560680028E1D033E0A1
:1011A0006068B0F5803F10D0B0F5A02F286810D04F
:1011B00020F480302860286820F48020286060684F
:1011C000A8B1FFF761FE06460DE0286840F48030C4
:1011D000F4E740F480202860F7E700BFFFF754FEF3
:1011E000801B642873D828688003F7D50CE0FFF7CC
:1011F0004BFE064605E000BFFFF746FE801B642855
:10120000F0D828688003F7D42078DFF8AC82800714
:101210004FF0000A3ED5A748001D016811F00C0FE1
:1012200008D00068C0F3810002280BD1D9F8000073
:10123000400207D42868800716D5E068012800D14D
:1012400012E033E1E068B8B10120C8F80000FFF710
:101250001BFE064605E000BFFFF716FE801B0228B6
:10126000C0D828688007F7D52868216920F0F800E1
:1012700040EAC10028600DE0C8F800A0FFF704FEB6
:10128000064604E0FFF700FE801B02281FD82868EE
:101290008007F7D42078000722D5864F87486169F8
:1012A000703771B101210160FFF7EEFD064604E0E1
:1012B000FFF7EAFD801B022809D838688007F7D5B8
:1012C0000EE0C0F800A0FFF7DFFD064605E082E073
:1012D000FFF7DAFD801B02287DD838688007F7D435
:1012E0002078400768D5DFF8CCB100270BF13C0B24
:1012F000DBF80000C0000BD4DBF8001041F0805197
:10130000CBF80010DBF80000012700F080500090BF
:101310006B4E3068C00510D4306840F48070306087
:10132000FFF7B2FD009005E0FFF7AEFD0099401A0F
:10133000022850D83068C005F6D55E4EA0686C36DD
:1013400001280FD00528306810D020F0010030604F
:10135000306820F004003060A068B8B1FFF794FD59
:1013600000900FE0306840F00100F4E740F0040026
:101370003060F7E7FFF788FD0099411A41F28830A5
:10138000814266D830688007F4D50EE0FFF77CFD17
:10139000009007E0FFF778FD0099411A41F288308C
:1013A000814256D830688007F4D42FB1DBF80010A2
:1013B00021F08051CBF80010A069C8B33D49091D48
:1013C0000968C1F3810102294AD00228504607D09A
:1013D000C8F8600000E03CE0FFF756FD04463BE043
:1013E0004746C8F86000FFF74FFD064605E000BF1E
:1013F000FFF74AFD801B02282BD828688001F7D40C
:10140000D4E907010843A16A2E4A490802EB0141C9
:10141000626A41EA8211084394F82C1040EA0161A3
:10142000C9F8001001203866FFF72EFD044606E0DB
:101430003EE000BFFFF728FD001B022809D82868FE
:101440008001F7D534E000BFFFF71EFD001B022826
:1014500002D90320BDE8F88F28688001F4D427E082
:101460000128F7D0D9F80000E26900F48001914228
:101470001CD1226A00F03F01914217D147F6C0719A
:10148000626A0140B1EB821F10D1A26A4FF0FF33B4
:1014900000F4403103EB5202B1EB024F06D194F855
:1014A0002C1000F07060B0EB016F01D00120D1E78B
:1014B0000020CFE70438024000004742800E474238
:1014C000007000400000FFFF7047000038B5016861
:1014D00004464A688868C043430606D5C30704D15A
:1014E000D3435B0601D4216C05E0830708D4D343C2
:1014F0001B0605D4616C01B02046BDE830400847AA
:10150000830603D5430601D5C30551D4D3439B06B7
:101510004ED443060AD494F85130032B49D0636D5E
:1015200043F004036365CB688B680093830609D49A
:10153000636D43F0010363658B6800930B6823F0D0
:1015400040030B60C00506D4606D40F00800606584
:10155000206880680090606D002829D0206841686C
:1015600021F0E0014160012084F85100900701D48E
:10157000D00722D02068416821F003014160114D5D
:10158000E06C40B10565E06CFFF76EFB18B1606D73
:1015900040F040006065A06C002809D00565A06C93
:1015A000FFF762FB002803D0606D40F040006065EB
:1015B00038BDC8688868009038BD2046FFF784FFB2
:1015C00038BD0000C123000870B5040009D0606A6E
:1015D000002540B125616561A56294F8510040B1D4
:1015E0000CE0012070BD6068B0F5827FF4D0E56149
:1015F000F2E784F85050204600F044F8022084F8C6
:1016000051002068016821F040010160A088218913
:1016100000F4827001F404410843A18901F40061DF
:101620000843217C01F002010843217D01F0010102
:101630000843218B01F400710843217F01F0380138
:10164000084394F8201001F080010843218D01F433
:101650000051084321680860A069042101EA104094
:1016600094F8241001F010010843216848602068B4
:10167000C16921F40061C1616565012084F85100F0
:10168000002070BD10B586B0044614216846FEF7F0
:1016900081FE17492068884228D116480021026837
:1016A00042F480520260006800F4805005901148B6
:1016B0001438026842F001020260006800F0010084
:1016C0000590E02000900220CDE901010320039065
:1016D0000520049069460848FFF7D8FA0022114611
:1016E0002320FFF73FFC2320FFF72EFC06B010BDA0
:1016F0000030014044380240000002402DE9F84F1C
:10170000984616468A460446FFF7BEFB814694F883
:10171000510001281ED1BAF1000F73D0002E71D0F4
:1017200094F85000012815D0012784F85070032048
:1017300084F8510000256565C4F830A0A686E686C9
:10174000A563A587E58765642564A068B0F5004FAB
:1017500003D00CE00220BDE8F88F2068016821F07A
:10176000400101602068016841F480410160206807
:101770000168490603D4016841F040010160E06856
:10178000B0F5006F606803D048B3012E27D047E062
:1017900008B1012E1FD1206B21680088C86006E0C7
:1017A00020688168890709D5216B0988C160206B91
:1017B000801C2063E08E401EE0860CE0FFF764FB97
:1017C000A0EB0901414503D3B8F1FF3F03D035E059
:1017D000B8F1000F32D0E08E0028E1D123E0206B79
:1017E00021680078087306E02068816889070AD5B7
:1017F000216B09780173206B401C2063E08E401E32
:10180000E0860DE02BE0FFF73FFBA0EB090141452F
:1018100003D3B8F1FF3F03D010E0B8F1000F0DD0B3
:10182000E08E0028E0D14A464146204600F0D0FD37
:1018300008B120206065A06830B109E084F85170DB
:1018400084F85050032086E72068C16880680090C3
:1018500084F8517004F8505F60680028F3D00120CC
:1018600079E710B5401EB0F1807F01D3012010BD93
:101870004FF0E02460610F21601701F078F900203B
:10188000A06107202061002010BD000070B590F815
:101890003C20012A32D0012480F83C40022280F80A
:1018A0003D2003685A689D6822F070060A6832433A
:1018B0005A60134B02689A4214D0B2F1804F11D093
:1018C000104B9A420ED0104B9A420BD00F4B9A42BB
:1018D00008D00F4B9A4205D00E4B9A4202D00E4BC5
:1018E0009A4204D1496825F080031943916080F839
:1018F0003D40002180F83C10084670BD022070BDBC
:10190000000001400004004000080040000C0040BE
:1019100000040140004001400018004010B50400E0
:1019200003D094F83D0010B107E0012010BD002065
:1019300084F83C00204600F01FF8022084F83D00A7
:10194000211D206800F09EFE012084F8460084F8E6
:101950003E0084F83F0084F8400084F8410084F899
:10196000420084F8430084F8440084F8450084F879
:101970003D00002010BD000008B5006806498842FF
:1019800008D10648016841F001010160006800F0DB
:101990000100009008BD00000000014044380240F2
:1019A00090F83D10012901D001207047022180F8F4
:1019B0003D1000681149884214D0B0F1804F11D019
:1019C0000F4988420ED00F4988420BD00E498842F9
:1019D00008D00E49884205D00D49884202D00D49F1
:1019E000884204D1816801F00701062903D001680B
:1019F00041F001010160002070470000000001403B
:101A00000004004000080040000C004000040140B9
:101A1000004001400018004070B5044690F83C00BA
:101A20000025012817D0012684F83C60022084F8A4
:101A30003D002068826822F0770222F47F428260B3
:101A40000868502838D00DDC20284FD005DC90B332
:101A5000102811D14AE0022070BD302846D040281D
:101A60000AD13BE060282FD070280DD0B0F5805F00
:101A700003D0B0F5005F12D0012584F83D6000204E
:101A800084F83C00284670BDCB68D1E9012120686C
:101A900000F060FE2068816841F0770109E0CB68C2
:101AA000D1E90121206800F055FE2068816841F4E9
:101AB00080418160E1E719E0CA684968206800F068
:101AC0005BFE5021206806E0CA684968206800F083
:101AD00064FE6021206800F047FECEE7CA684968CE
:101AE000206800F049FE40212068F4E722680146A2
:101AF0001046F0E7FEE700002DE9F047134C814661
:101B000000216088401E83B22088401E82B20846B1
:101B100000F0C4F90E4F0020C7F890020D494FF0B5
:101B20000108C1F88082064609E0002503E0484626
:101B300000F0CCFA6D1C2088A842F8D8761C60888A
:101B4000B042F2D8C7F89082BDE8F087C00000200C
:101B5000000040420080404238B5034C2488009485
:101B600000F07CF838BD00001C0000202DE9FE4F7D
:101B7000161ACDE900104FF000085D1A47464FF0E5
:101B8000FF30002E02DD4FF0010102E003D14FF0E3
:101B900000018B4602E08346C6F10006002D02DDFF
:101BA0004FF0010002E003D14FF00000824602E056
:101BB0008246C5F10005AE4201DD344600E02C4608
:101BC000601C4FF00009029018E0009881B2019863
:101BD00080B200F019F8B0442F44A04504DD01980C
:101BE000A8EB040858440190A74203DD00983F1B6E
:101BF0005044009009F101001FFA80F902998945CB
:101C0000E3DDBDE8FE8F000010B500F043F90348A6
:101C10000088BDE8104000F059BA00001C00002008
:101C20002DE9F0411C4615460E4607460B46FFF7C8
:101C30009DFF3A46234631461046FFF797FF23465D
:101C40002A4619463846FFF791FF2A462346314671
:101C5000BDE8F0411046FFF789BF00002DE9F041D3
:101C6000141A641CA6B25C1A641CA7B2DDF81880B2
:101C700000F014F900250AE0002404E0404600F0DA
:101C800025FA641CA4B2B442F8D36D1CADB2BD42B7
:101C9000F2D3064841880088491EBDE8F041401E45
:101CA0008BB282B20021084600F0F8B8C0000020D4
:101CB00010B500F0DBF8F72000F0BAF9A92000F029
:101CC0009FF9512000F09CF92C2000F099F9822016
:101CD00000F096F9C02000F0ABF9112000F090F967
:101CE000092000F08DF9C12000F0A2F9412000F098
:101CF00087F9C52000F09CF9002000F081F90A2046
:101D000000F07EF9802000F07BF9B12000F090F91E
:101D1000B02000F075F9112000F072F9B42000F045
:101D200087F9022000F06CF9B62000F081F902205A
:101D300000F066F9422000F063F9B72000F078F96E
:101D4000C62000F05DF9BE2000F072F9002000F01E
:101D500057F9042000F054F9E92000F069F9002057
:101D600000F04EF9362000F063F9682000F048F9E1
:101D70003A2000F05DF9662000F042F9E02000F022
:101D800057F9002000F03CF9072000F039F9102045
:101D900000F036F9092000F033F9172000F030F98F
:101DA0000B2000F02DF9412000F02AF9892000F0E5
:101DB00027F94B2000F024F90A2000F021F90C202B
:101DC00000F01EF90E2000F01BF9182000F018F9A1
:101DD0001B2000F015F90F2000F012F9E12000F0AF
:101DE00027F9002000F00CF9172000F009F91A205B
:101DF00000F006F9042000F003F90E2000F000F9CD
:101E0000062000F0FDF82F2000F0FAF8452000F041
:101E1000F7F8432000F0F4F8022000F0F1F80A206F
:101E200000F0EEF8092000F0EBF8322000F0E8F8BE
:101E3000362000F0E5F80F2000F0E2F8112000F065
:101E4000F7F8782000F0F6FE292000F0F1F80020E5
:101E500000F016F904490120C1F88802BDE81040DD
:101E60004FF6FF70FFF748BE0000404210B5084C27
:101E70000020C4F88402642004F5217400F0DAFE26
:101E800001202060BDE81040322000F0D3BE0000E9
:101E9000008040420B460246AFF300802DE9F0413E
:101EA000DFF8508007461C4615460E4698F80A0093
:101EB00000F0BEF8380A00F0A3F8F8B200F0A0F87D
:101EC000280A00F09DF8E8B200F09AF898F80C00A3
:101ED00000F0AEF8300A00F093F8F0B200F090F89D
:101EE000200A00F08DF8E0B200F08AF8BDE8F04179
:101EF00000F0B6B8C00000202DE9FF4F81B08A463F
:101F00000EA9DFF8EC9091E83100203800F0FF08CE
:101F10000AEB0400401E83B20198B9F800B000EB50
:101F20005400401E82B251460198FFF7B7FF002DC2
:101F30004FF0000549D12F4808EB480100EB810A1A
:101F400000F2744000EB081817E00C2C03D018F8CE
:101F5000057000260CE01AF80570FAE7F80701D0C2
:101F6000039800E0049800F0B1F87F08761CF6B200
:101F7000B6EB540FF2D36D1CEDB2A542E5D326E0CB
:101F80000C2C08D01C4901EB08100026475D0AEB19
:101F90000500009014E0174808EB480100EB8100B1
:101FA000F3E70398A9F80000F80706D0009881B27B
:101FB0000198304480B2FFF727FE7F08761CF6B206
:101FC000B6EB540FEDD36D1CEDB2A542D8D30B4840
:101FD000A9F800B04188008805B0491EBDE8F04F5F
:101FE000401E8BB282B200210846FFF757BF0000A7
:101FF0001C0000206C2D0008E0310008C00000200B
:1020000070B5084C0021C4F8901207490125C1F8A9
:1020100080520146054804F5247400F06DFA2560ED
:1020200070BD0000000040420080404220000020BF
:1020300010B5084C0021C4F89012074AC2F880126B
:102040000146064804F5247400F056FA0120206089
:1020500010BD0000000040420080404220000020EF
:102060000148007AFFF7E4BFC000002010B50C461D
:10207000FFF7DEFFE0B2BDE81040FFF7C1BF000090
:1020800011492A224FF4A0734A812B228A812C22E3
:102090000A81F02258B101280DD002280FD0032860
:1020A00011D10B804A80A8213620FFF7DFBF0A80BC
:1020B0004B800821F8E70B804A806821F4E70A800A
:1020C0004B80C821F0E77047C000002010B50446DF
:1020D000F82000EA1420FFF793FFFC2000EAD40068
:1020E000FFF78EFFE006BDE81040000EFFF788BF47
:1020F0002DE9F04786B014216846FEF74BF93448C5
:102100000024016841F080010160016801F0800154
:102110000591016841F001010160016801F00101D0
:102120000591016841F002010160016801F00201BE
:102130000591016841F0100101600068DFF89480AA
:1021400000F010000590002214214046FEF796FE94
:10215000DFF88490002203214846FEF78FFEDFF867
:102160007CA04FF4D057002239465046FEF786FE39
:10217000042000900125CDE90154694640460394AE
:10218000FEF784FD10200326CDE90005CDE90246C7
:1021900069464046FEF77AFDCDE90065CDE9024685
:1021A00069464846FEF772FD4FF4A060CDE9000491
:1021B000694650460294FEF769FD00970396CDE903
:1021C000015469465046FEF761FD06B0BDE8F08750
:1021D000303802400000024000040240001002407B
:1021E0000F4810B50D4901604FF482714160002124
:1021F0008160C1604FF400720161C0E90512C161E4
:102200000162416281620A21C162FFF7DDF90028A3
:1022100003D0BDE81040FEF7C3BA10BD0030014046
:102220002000002010B586B00024184800940194C6
:1022300002940394049414490594016042F21071CD
:10224000C0E901144FF6FF71C0E9031444618461D1
:10225000FFF764FB08B1FEF7A3FA4FF4805000903B
:1022600069460A48FFF7D8FB08B1FEF799FA0494CB
:1022700004A906480594FFF709FB002801D0FEF7E2
:102280008FFA06B010BD0000000001407800002069
:10229000FEE7FEE770470000FEB51DA0FEF756F909
:1022A0001E21204A0846FEF793FC10251EA0CDE90A
:1022B000000501244FF6E07633461F224B2102949D
:1022C0002A2000F027F9174A1E215A20FEF780FC29
:1022D00015A0CDE9000533461F224B21029466204C
:1022E00000F018F90F4A1E219620FEF771FC0EA08F
:1022F000CDE9000533461F224B210294A22000F0B5
:1023000009F9BDE8FE404FF4966000F093BC000070
:10231000B2E2CAD4373ACDBCC6ACCFD4CABEB2E260
:10232000CAD400001A440008515100002DE9F043BE
:10233000194B87B003AE0FCB86E80F0000244FF097
:10234000010810274FF6E0794FF47A752046FFF721
:1023500097FE12A0FEF7FAF856F824104B468DE8C7
:1023600082011F221E21142000F0D4F8104A3221CD
:102370001E20FEF72DFC284600F05CFC284600F0ED
:1023800059FC641CE4B2042CE0D30020FFF778FE73
:1023900007B0BDE8F08300004C2D0008B2E2CAD4BB
:1023A000383AC6C1C4BBD0FDD7AAB2E2CAD4000035
:1023B0001A4400080148FFF789B8000020000020F7
:1023C00010B5806B0021C187C186FFF77DF810BD75
:1023D000F8B515460E460B4600920446012202212E
:1023E00000F02CF8A0B9134813490068B0FBF1F0D5
:1023F0004FF47A71484300906068B0F5827F0DD148
:102400003346002280212046009500F017F870B175
:10241000606D40F0200060650320F8BD009830B189
:10242000401E009020688068C0430006F6D500205A
:10243000F8BD00001800002000366E012DE9F843B9
:102440001E46914688460446089DFEF71DFD401B2A
:10245000351AFEF719FD074626480068C0F3CB3051
:1024600068430AE0701C09D0FEF70EFDC01BA842AD
:102470000FD275B10098B8B3401E009020688168F3
:1024800038EA010033D000214945EBD10020BDE8F6
:10249000F8832068416821F0E00141606068B0F590
:1024A000827F0BD1A068B0F5004F02D0B0F5806FED
:1024B00004D12068016821F040010160A06AB0F5F4
:1024C000005F09D12068016821F400510160206893
:1024D000016841F400510160012084F8510000209E
:1024E00084F850000320D2E7FFE70025C6E701216A
:1024F000CAE700001800002013B54FF0FF33012297
:1025000001A9FFF7FBF8002801D0FEF749F91CBD2F
:10251000704700002DE9FF4F83B0884610A904469C
:1025200091E86004814628782C4F9B46002852D0C1
:102530003888A0EB5601A1424DDB79888A1B4245C1
:1025400049DB2978802915D9801BA04243DB42450D
:1025500041DB202E33D0CDE9005A059A182E5B4678
:102560004146204634D0FEF7C5F9A01984B215F8CB
:10257000020FDBE70D290DD0102E12D910228DE8A5
:1025800006045B4641462046059AFFF7B5FC083431
:10259000A4B211E008EB06001FFA80F84C466D1C4F
:1025A0000AE08DE842045B4641462046059AFFF763
:1025B000A3FC04EB560084B215F8010FB6E7CDE991
:1025C000005A5B4641462046059AFEF781FACCE761
:1025D000FEF706FAC9E707B0BDE8F08FC00000209B
:1025E000FEF758BC30B593B030216846FDF7D2FEF7
:1025F00014210CA8FDF7CEFE1C480025016841F00F
:1026000080510160006800F0805011901848016806
:1026100041F4804101600068022400F48040119080
:1026200001200090000401908001CDE9064008AA35
:102630000420A82182E813000B906846FEF78EFD67
:1026400008B172B6FEE70CA90F2081E831004FF403
:10265000A0500F90109005210CA8FEF7B5FC0028A3
:1026600001D072B6FEE713B030BD00004038024022
:10267000007000400248016841F470010160704739
:1026800088ED00E0F0B50268274B284D284E294F11
:10269000294C4FF0804C984209D0604507D0A842A1
:1026A00005D0B04203D0B84201D0A04204D122F0FC
:1026B000700E4A6842EA0E0298421BD0604519D05B
:1026C000A84217D0B04215D0B84213D0A04211D0C2
:1026D0001A4DA8420ED01A4DA8420BD0194DA8424F
:1026E00008D0194DA84205D0184DA84202D0184D67
:1026F000A84203D122F44075CA682A434D6922F0EA
:1027000080022A438D68C5620D688562984201D0B7
:10271000A04201D109690163016841F0040101602F
:10272000012141610260F0BD000001400004004051
:1027300000080040000C004000040140004001403F
:10274000004401400048014000180040001C0040C7
:102750000020004010B5846842EA032224F47F443C
:102760000A432243826010BD826822F070020A434D
:1027700042F007018160704710B5036A046A24F0D3
:1027800001040462846924F0F00444EA021423F092
:102790000A020A438461026210BD10B5036A046A2A
:1027A00024F010040462846923F0A00324F470442C
:1027B00044EA023243EA01118261016210BD000065
:1027C0002DE9F84300242AA0FDF7C0FE2E4D4FF658
:1027D000FF77009768882A88143883B21421002074
:1027E000FFF73CFA294EA046CDF8008004EBC40068
:1027F000698800EB041000EB51012A881E2300EBCE
:10280000520036F814205038323900F033FA641C84
:10281000E4B2052CE8D340F2DC58404600F00AFA56
:10282000009768882A88143883B214210020FFF7A3
:1028300015FA00245FF00107009704EBC4006988D3
:1028400000EB041000EB51012A881E2300EB52001C
:1028500036F814205038323900F00CFA641CE4B217
:10286000052CE9D34046BDE8F84300F0E3B9000089
:10287000B2E2CAD4333A475549BBADD4B2CCEEB379
:10288000E4B2E2CAD4000000C00000200000002032
:102890002DE9FE434FF6FF702E4C00900021638817
:1028A00022880846FFF7DAF910262BA0CDE90006AA
:1028B00001254FF6E07843461F221E210295142081
:1028C000FFF728FE4FF44879484600F0B3F94FF47B
:1028D000784700970021638822880846FFF7BEF9F1
:1028E0001FA0CDE9000643461F221E210295142099
:1028F000FFF710FE484600F09DF94FF4FC60009091
:102900000021638822880846FFF7A8F916A0CDE9C0
:10291000000643461F221E2102951420FFF7FAFDF0
:10292000484600F087F91F20009000216388228824
:102930000846FFF793F90EA0CDE9000643463A4654
:102940001E2102951420FFF7E5FD4846BDE8FE4331
:1029500000F070B9C0000020424C20546573740030
:102960005245442000000000475245454E200000DB
:10297000424C5545200000002DE9F84300242FA0CB
:10298000FDF7E4FD334D4FF6FF78CDF80080688801
:102990002A88143883B214210020FFF75FF92E4EE5
:1029A0002E4F00BF36F8140038806988C4EB04103D
:1029B00000EB5101A1F1140293B22A88503900EBC7
:1029C0005200A0F11402503892B289B280B2FFF7DF
:1029D00027F9641CE4B2052CE4D340F2DC594846E4
:1029E00000F028F9CDF8008068882A88143883B26E
:1029F00014210020FFF732F95FF0000436F81400CC
:102A000038806988C4EB041000EB5101A1F1140275
:102A100093B22A88503900EB5200A0F114025038CA
:102A200092B289B280B2FFF797F8641CE4B2052C29
:102A3000E4D34846BDE8F84300F0FCB8B2E2CAD49B
:102A4000323A475549BED8D0CECCEEB3E4B2E2CA52
:102A5000D4000000C0000020000000201C00002066
:102A60002DE9FC47002437A0FDF770FD3C4D4FF6E3
:102A7000FF78CDF8008068882A88143883B2142142
:102A80000020FFF7EBF8374E374F00BF36F8140041
:102A900038806988C4EB041000EB5102A2F11400E5
:102AA00081B2288804EB8403400800EB8300A0F186
:102AB000150C1FFA8CF3CDE90031493A93B2A0F11D
:102AC0003302503892B280B2FDF786FD641CE4B246
:102AD000052CDBD340F2DC59484600F0ABF8CDF8CA
:102AE000008068882A88143883B214210020FFF7F8
:102AF000B5F8002404EB840336F8140038806988A4
:102B0000C4EB041000EB5102A2F1140081B228883A
:102B1000493A400800EB8300A0F115039BB2CDE9D0
:102B2000003193B2A0F13302503892B280B2FDF777
:102B300039FE641CE4B2052CDCD34846BDE8FC47F2
:102B400000F078B8B2E2CAD4343A475549205472FA
:102B500069616E676C65CCEEB3E4B2E2CAD4000082
:102B6000C0000020000000201C000020FEE7090734
:102B7000090E002804DB00F1E02080F80014704703
:102B800000F00F0000F1E02080F8141D70472DE9DF
:102B9000F05F15461C46DDF828B00E46074601EBEF
:102BA000040800EB050A1FFA88F11FFA8AF05A465A
:102BB000FEF704F8A7EB05091FFA88F11FFA89F060
:102BC0005A46FDF7FBFFA6EB04081FFA88F11FFA2F
:102BD0008AF05A46FDF7F2FF1FFA88F11FFA89F0D2
:102BE0005A46FDF7EBFF06EB050807EB04091FFA51
:102BF00088F11FFA89F05A46FDF7E0FF3C1B1FFAE7
:102C000088F1A0B25A46FDF7D9FF751BA9B21FFA89
:102C100089F05A46FDF7D2FFA9B2A0B25A46BDE8E4
:102C2000F05FFDF7CBBF00000148FEF7B9BE000022
:102C3000780000200C4909684A6A00EE100ADFEDAE
:102C40000B0A92B2B8EE400A20EE200ADFED080A25
:102C500080EE201ABCEEC10A10EE100A4B6A9BB23D
:102C60009B1A8342FAD370477800002000007A4410
:102C700062186E422DE9F84F90461E4689468246FC
:102C80000024724203200A9900EB4205C9B930E0E2
:102C9000274608E03B46224649465046CDF800808C
:102CA000FFF775FF7F1CB742F4DD002D03DA05EB5B
:102CB0008405AD1D04E0A01B05EB80050A35761EDA
:102CC000641CB442E4DDBDE8F88F33462246494631
:102CD0005046CDF80080FFF75AFF002D03DA05EBD0
:102CE0008405AD1D04E0A01B05EB80050A35761EAA
:102CF000641CB442E9DDE6E7FEF7D4F8FFF772FCA6
:102D0000FFF7F6F9FFF76CFAFFF78CFAFFF78CFF85
:102D1000FEF7CEFF00F001F8FCE710B5FFF7B8FDB5
:102D2000FFF72AFEFFF74CFDFFF79AFEFDF76CFC5C
:102D3000FDF794FBFFF7B0FABDE81040FFF7F6BAD5
:102D40004FF04070E1EE100A70470000C8500008D4
:102D5000BC500008AC5000089C5000080000000067
:102D6000000000000102030406070809000000003B
:102D7000000000000000000000000404040404043B
:102D80000004000000140A0A000000000000000017
:102D9000000014143F140A3F0A0A000000041E1524
:102DA00005060C14150F0400000012150D0A142C52
:102DB0002A1200000000040A0A1E15150936000038
:102DC00000020201000000000000000000201008C6
:102DD000080808080810200000020408080808086D
:102DE0000804020000000004150E0E150400000087
:102DF00000000404041F040404000000000000009C
:102E0000000000000002020100000000001F00009E
:102E100000000000000000000000000000020000B0
:102E200000100808080404020202010000000E114C
:102E300011111111110E0000000004060404040415
:102E4000040E000000000E1111080402011F000012
:102E500000000E11100C1010110E00000000080CE4
:102E60000A0A091E0818000000001F01010F1010B7
:102E7000110E000000000E09010F1111110E0000CB
:102E800000001F09080404040404000000000E11DF
:102E9000110E1111110E000000000E1111111E1063
:102EA000120E0000000000000400000000040000FA
:102EB00000000000000400000004040000201008CE
:102EC0000402040810200000000000001F00001F82
:102ED0000000000000020408102010080402000096
:102EE00000000E11110804040004000000000E117F
:102EF0001915151D011E0000000004040C0A0A1E0D
:102F00001233000000000F12120E1212120F0000F6
:102F100000001E1101010101110E000000000F123E
:102F200012121212120F000000001F120A0E0A02E3
:102F3000121F000000001F120A0E0A020207000002
:102F400000001C1201013911120C000000003312A4
:102F5000121E12121233000000001F0404040404A5
:102F6000041F000000003E080808080808090700C0
:102F7000000037120A060A0A123700000000070292
:102F800002020202223F000000001B1B1B1B151542
:102F90001515000000003B1216161A1A1217000031
:102FA00000000E1111111111110E000000000F127E
:102FB000120E02020207000000000E11111111177B
:102FC000190E180000000F12120E0A12123700001C
:102FD00000001E1101060810110F000000001F154F
:102FE00004040404040E0000000033121212121232
:102FF000120C000000003312120A0A0C0404000034
:1030000000001515150E0A0A0A0A000000001B0A26
:103010000A04040A0A1B000000001B0A0A04040434
:10302000040E000000001F0908040402121F000023
:10303000001C04040404040404041C000002020232
:103040000404080808100000000E08080808080812
:1030500008080E0000040A00000000000000000044
:1030600000000000000000000000003F000400001D
:10307000000000000000000000000000000C121C16
:10308000123C000000000302020E1212120E000099
:1030900000000000001C1202021C000000001810BA
:1030A000101C1212123C000000000000000C121E46
:1030B000021C000000003804041E0404041E00006A
:1030C00000000000003C120C021E221C0000030243
:1030D000020E121212370000000004000006040461
:1030E000040E000000000800000C0808080808078B
:1030F00000000302023A0A0E123700000000070423
:1031000004040404041F000000000000000F151553
:103110001515000000000000000F12121237000009
:1031200000000000000C1212120C00000000000051
:10313000000F1212120E020700000000001C1212F3
:10314000121C103800000000001B060202070000DD
:1031500000000000001E020C101E00000000000411
:10316000040E04040418000000000000001B1212EA
:10317000123C0000000000000037120A0C0400009E
:10318000000000000015150E0A0A000000000000F3
:10319000001B0A040A1B0000000000000037120A8E
:1031A0000C04040300000000001E0804041E0000BC
:1031B0000018080808040808080818000808080883
:1031C000080808080808080800060404040804049D
:1031D00004040600022518000000000000000000A2
:1031E00000000000000000000000000000000000DF
:1031F0000000000808080808080800001818000067
:1032000000486C24120000000000000000000000D4
:103210000000002424247F1212127F1212120000D8
:103220000000081C2A2A0A0C1828282A2A1C080828
:1032300000000022251515152A5854545422000068
:103240000000000C1212120A76252911916E00005E
:10325000000606040300000000000000000000005B
:10326000004020101008080808080810102040002E
:1032700000020408081010101010100808040200C2
:103280000000000008086B1C1C6B08080000000010
:1032900000000000080808087F080808080000006F
:1032A000000000000000000000000000060604030B
:1032B0000000000000000000FE0000000000000010
:1032C00000000000000000000000000006060000F2
:1032D0000000804040202010100808040402020072
:1032E0000000001824424242424242422418000098
:1032F000000000080E08080808080808083E00003A
:103300000000003C4242422020100804427E00009F
:103310000000003C4242201820404042221C000095
:10332000000000203028242422227E202078000063
:103330000000007E0202021A26404042221C0000C9
:10334000000000382402021A2642424224180000DB
:103350000000007E2222101008080808080800005B
:103360000000003C4242422418244242423C0000F9
:10337000000000182442424264584040241C0000CF
:1033800000000000000018180000000018180000DD
:103390000000000000000008000000000008080411
:1033A0000000004020100804020408102040000023
:1033B0000000000000007F0000007F00000000000F
:1033C0000000000204081020402010080402000041
:1033D0000000003C42424640201010001818000037
:1033E0000000001C225A555555552D42221C000044
:1033F0000000000808181414243C224242E7000090
:103400000000001F2222221E22424242221F0000F0
:103410000000007C4242010101010142221C000027
:103420000000001F2242424242424242221F00004C
:103430000000003F4212121E12120242423F0000E0
:103440000000003F4212121E121202020207000088
:103450000000003C2222010101712122221C0000F7
:10346000000000E7424242427E42424242E7000000
:103470000000003E0808080808080808083E000088
:103480000000007C10101010101010101010110F00
:103490000000007722120A0E0A1212222277000080
:1034A000000000070202020202020202427F000044
:1034B00000000077363636362A2A2A2A2A6B000080
:1034C000000000E346464A4A5252526262470000F8
:1034D0000000001C2241414141414141221C0000A9
:1034E0000000003F424242423E0202020207000048
:1034F0000000001C2241414141414D53321C6000FB
:103500000000003F4242423E1212222242C7000007
:103510000000007C4242020418204042423E00006B
:103520000000007F4908080808080808081C000077
:10353000000000E74242424242424242423C000016
:10354000000000E742422224241414180808000056
:103550000000006B49494949555536222222000096
:10356000000000E7422424181818242442E7000031
:10357000000000772222141408080808081C000024
:103580000000007E2120101008040442423F000089
:1035900000780808080808080808080808087800DB
:1035A00000000202040408080810102020204040F7
:1035B000001E1010101010101010101010101E000F
:1035C000003844000000000000000000000000007F
:1035D000000000000000000000000000000000FFEC
:1035E00000060800000000000000000000000000CD
:1035F000000000000000003C4278444242FC000011
:10360000000000030202021A26424242261A00006B
:1036100000000000000000384402020244380000AC
:1036200000000060404040784442424264D80000BC
:10363000000000000000003C427E0202423C00000C
:10364000000000F08808087E08080808083E00000E
:10365000000000000000007C22221C023C42423C90
:10366000000000030202023A4642424242E70000E2
:103670000000000C0C00000E08080808083E0000BE
:103680000000003030000038202020202020221EA2
:103690000000000302020272120A161222770000D2
:1036A0000000000E0808080808080808083E000086
:1036B000000000000000007F9292929292B70000FA
:1036C000000000000000003B4642424242E700008A
:1036D000000000000000003C42424242423C000028
:1036E000000000000000001B26424242221E02078A
:1036F000000000000000007844424242447840E06C
:1037000000000000000000774C040404041F0000C7
:10371000000000000000007C42023C40423E0000ED
:10372000000000000008083E0808080808300000F3
:1037300000000000000000634242424262DC0000E0
:1037400000000000000000E74224241408080000E4
:1037500000000000000000EB4949555522220000FE
:10376000000000000000007624181818246E0000E5
:1037700000000000000000E7422424141808080795
:10378000000000000000007E22100808447E0000B7
:1037900000C0202020202010202020202020C00039
:1037A0001010101010101010101010101010101019
:1037B0000006080808080810080808080808060095
:1037C0000C32C200000000000000000000000000F9
:1037D000C9EE000027FC140414A4811042084040E4
:1037E000104017FC2040E0E0215022482C462040A9
:1037F0000040DBDA11041124112411241124FD24CA
:10380000112411241124112411241D24E124422403
:1038100002040404CAD00200010000007FFC010081
:10382000010001003FF82108210821082108212872
:10383000211001000100C8AB00000000018002401F
:103840000430180860061FF90100010001003FF86C
:103850000100010001007FFEB6AF00000000002063
:103860003E20007C002200227F2210221022122201
:103870001222224223423D82009CB5E70000010053
:1038800001001FF0610C410441047FFC410441042C
:1038900041047FFC01000102010201FCD7D30000BA
:1038A00000003FF8001000600080010000807FFEF3
:1038B0000040004000200020002018400780BCBCD1
:1038C00010201020102013FEFC201020102015FCCA
:1038D00018843088D0481050102010505188260687
:1038E000CAF501000120011001107FFC0380054092
:1038F0000540092011102108410481020100010046
:103900000100D3D002000200FFFE040004000FF00B
:10391000081018102FF0481088100FF00810081029
:1039200008500820CFDE00007BF84A08520853F800
:10393000620852084BF84A444A486A305220421002
:10394000428843064200B9AB0080048004800840EE
:10395000084010202010420882060400044008207D
:1039600010203FF010100000CBBE00003FF8000810
:1039700000087FE8000800081F8810881088108859
:1039800010881F88108800280010BBB600800080B7
:10399000FC8004FC050449082A401440104028A07B
:1039A00024A045108110020804040802D3AD0000D1
:1039B0002080133C122402240224F2241224122414
:1039C00012B4132812201020282047FE0000C4FA49
:1039D0000900090011FC320454489950114812445E
:1039E00014441140108002005104511290120FF043
:1039F000B4BF00000020102013FE202026244A24FB
:103A00007A241224222423FC7C20002204227822FF
:103A1000003CC9AB0000000004000FF01020202083
:103A20007FFC20842084208420843FF82000200212
:103A300020021FFECCEE00000000204023FE2040AC
:103A400079FC220423FC220423FC220423FC3A04F4
:103A500065FA01980204B3E40000010001007FFE52
:103A600002200410040808043FFC044204400440FF
:103A7000044208421042607EBED800000000207E52
:103A80003E804880488048FE48827F8208820C82BF
:103A900014FA12842280218040FED0CE0000000063
:103AA0007F842208223022C0220222047FC82230D2
:103AB00022C222022204220822304040BBAD000074
:103AC00000007FFE00000FF01110111011105112B4
:103AD0005FF25112511251124FF240027FFCD4B2E8
:103AE000000000007FFE47E24812481247E24FF212
:103AF000501250125112511242924472580A3FFC15
:103B0000CDBC000000003FFE440247F24C2253624D
:103B1000408243625E1A41824062430240C24022B8
:103B20003FFCC6AC000000402040204020403FFE4B
:103B30002000200020003FE0201020102010201046
:103B400040104010CFD4000000003FFC20042004AF
:103B50003FFC200420041FF824441448144814484F
:103B60000C5004407FFECABE000000003FFC000075
:103B7000000000007FFE00800890088810881084F4
:103B80002084208240820780B2CB000000200820E1
:103B90007FFE002000783F881108089009207FFEF2
:103BA000018003400D30310C4002B5A5000000102B
:103BB000081004203FF8210421043FFC21042104C3
:103BC0003FF801007FFE010001000100D6D0000097
:103BD0000100010001003FFC210421042104210413
:103BE000210421043FFC0100010001000100D3A2D7
:103BF0000000000008207FFE0820092001003FF897
:103C00002108210821081FF4014002200C10700E29
:103C1000CEC400000100010000803F7C08100810A5
:103C200004100420022002400180018002601C1860
:103C3000E006D7DB00000000102011FE2202220265
:103C400049FC5800300013FE2528792401240D2456
:103C5000722202A2BACF00000000018002400430AC
:103C6000180860061FF800001FF820042004200434
:103C7000200420041FF8C1C10000010001007FFEE4
:103C800000003FF820083FF83FF8400647C24824AC
:103C9000082008221022603EB6C800000000008004
:103CA0003FFE44105FFC4410441043F040005FF8B6
:103CB0004408423041C04360BC1EB2E20000000034
:103CC00067C2145205520552C5522552055205527B
:103CD00015521752228222424442483ECAD4000062
:103CE00000002014101417FE00120010601013F0D2
:103CF000109010901090149214EA1F0A0006B3CC92
:103D00000000000019FE7202120212027DFC18006F
:103D10001BFE3420502053FE10201020102013FED4
:103D2000D0F20000000000803FFE400047FC420847
:103D3000413040C05FFE4042404240444048404025
:103D40004440B5F70000000023FE122202FA0222CE
:103D5000E22212FE1272128A128A128A16BA1A42CB
:103D60001202040EB9E20000010001041108090862
:103D7000091009207FFE044004400440044008422A
:103D800008421042607CB0E60000000048FE490096
:103D9000490049007EFE4182414479444528452836
:103DA0004510452846440382C8A8000010001000B2
:103DB00013FC7D04110419041884348850485050B1
:103DC00010201050108813041402CBF900000000DA
:103DD0003F7C204020403E40227E22442244224418
:103DE0003E8420842084408441044204C6C10000F3
:103DF0003FF8200820083FF8241022202FF8222026
:103E000022203FFC22204220442084200820C4BBE2
:103E100004407FFC04401FF010101FF010101FF032
:103E20000400FFFE11103FF8D116115011200100BF
:103E3000D0FD2080108010FE0100FE0021FC202417
:103E40003C2424A024A024BC24A024A04560553EEA
:103E50008A00D7AA202020202020FDFC40205040AE
:103E600093FEFC40108011FC1C04F0885050102080
:103E700010101010BFAA00007FFC082008200820A6
:103E800008200820FFFE0820082008200820102015
:103E9000102020204020D4B4000027FE142014401D
:103EA00085FC450445FC150415FC2524E42024A8C4
:103EB00029242A2230A00040D2BA0080204017FED8
:103EC00011208120423C4244166412942348E24867
:103ED00022302220225022880306BEA70FE00820AD
:103EE00008200FE0082008200FE000007EFC42843C
:103EF00042847EFC428442847EFC4284CDF80000F1
:103F00007FFC40044004421452944A544424442404
:103F10004A544A5452946104400440144008D5BEA7
:103F20001020082008207E20003E04204420442049
:103F300025FC290429040F04F104410401FC0104B7
:103F4000B0B410401020102013FEFA0214441040A8
:103F50001BFE3088D088110810D0102010505088D7
:103F60002304BCFC201020103B7C211441FE7A1459
:103F7000A27C2710F97C251025FE22102A1035007E
:103F800028FE0000D0A310401020102011FEFC00DD
:103F9000108831043A0254885088905010501020F4
:103FA000105010881306D7BC01404120212023FE69
:103FB000022016201BFC1220222023FCE2202220BB
:103FC000222023FE22000200B4A5202020207820F9
:103FD00049FC91247D24552455247DFC55245420EE
:103FE0007C28542457FE45028C00C3FE111011108A
:103FF00017FC1110FC0013F8120817F81A0833F810
:10400000D04017FC10A0111052082406C9EE000081
:10401000000000001000000800080C7FFC044010A5
:1040200001C8A002186042301832231812C30014CD
:10403000030004030C047FF0080F80080B40781382
:104040006018332018631818831C1903081803001C
:10405000000300000000DBDA000000000000041094
:104060000C04180C04108C04108C04108C04108C9C
:1040700004D08C3F108C04108C04108C04108C0421
:10408000108C04108C04108C05F08C0E208C782081
:104090008C20408C00808C01000C02000C00000081
:1040A000CAD0000000000000003000001800001816
:1040B0000800001C1FFFE000180000182007FFF098
:1040C00004182004182004182004182004182004C0
:1040D00018200418200418200418200418E00418DC
:1040E00040001800001800000000D6D000000000BA
:1040F0000000000000000000001800001800001878
:10410000000018003FFFFE30180630180630180671
:104110003018063018063FFFFE3018060018000061
:10412000180000180000180000180000000000002F
:1041300000000000CEC400000000000000000000ED
:104140003800001C00000600FFFFFF0600300600DC
:10415000300300600300600180C000C18000E30004
:10416000003600001C0000770003C1E01E003C6028
:104170000007000000000000000000000000B2E2A4
:1041800000000000000000000000000040000321CB
:10419000FF33398333118333019B33C19B33719BCD
:1041A00033199B33019B33019B33119B3319B33379
:1041B000303033306C0330C6036383032E01BE00FE
:1041C0000000000000000000CAD400000000000051
:1041D0000000000000004000D83000CE1800C21CD3
:1041E00000C001FFFF0000C0F800C01800C019FFA8
:1041F000C01818401818601918601B18611E183173
:104200001C1FB139F01910000F0000000000000061
:104210000000D7D6000000000006000000030000E8
:104220000000C0000001C0C0000107C00001FF0085
:10423000021FFE0007F01C0007C070000F00E00026
:104240000E03F0001C0FF0003C0F70003C00E0007B
:104250001800C0000000C0000000C00000006000A6
:1042600000002000000037000001FF00007FF80080
:1042700007F830001F8030000080300000C03000A0
:10428000006060000018E000000FC00000060000A1
:1042900000000000CCE5000000000000000000006D
:1042A00000C0000000E0002001B800703FF800618D
:1042B000FFC000C3030001C60600038C060003080C
:1042C0000C0006080C000E18183F1E101BF31F9060
:1042D0003F0700803C1C0190707C019060FE01A0B3
:1042E000C3F801A00FD803A008180360001803400A
:1042F000001803C000180380001803000018000015
:104300000018000000100000003000000030000025
:10431000000000000000B2E2000000000000000009
:104320000000000000000000020C1008071FF80445
:1043300003BFF00201BC300303EC3003015C6003F7
:1043400000D8600300D860038098620361B8430717
:1043500071B14306313243063376C3063A64C70669
:104360003EECC0063E78C0063C3040067C7000063D
:1043700078E060067BFFF006F7C00006E400000668
:1043800040000006000000060000007C00008FF0E6
:1043900000007C0000000000CAD400000000000003
:1043A00000000000000000003F0000007F800000CF
:1043B0000180000000C0000000C0000000CE0380AB
:1043C00000CFFFC000DD41800FFE0007FFFC000CA6
:1043D00000F000180FC03E19FF40F311BC6083309D
:1043E0007FE003B1FE2003338020037000300360C0
:1043F00000100360001807C0000C07C0000407800D
:1044000000020100000300000001000000000000A5
:1044100000000000000000000000FFFFFFFFFFFFA2
:10442000FFFFFFFFFFFFFFFFFFFFFFFFFFFFFFFF9C
:10443000FFFFFFFFFFFFFFFFBEF7FFFFDEFF38C6F6
:10444000928C8E6B6E6B107C96AD3CE7FFFFFFFF8E
:10445000FFFFFFFFFFFFFFFFFFFFFFFFFFFFFFFF6C
:10446000FFFFFFFFFFFFFFFFFFFFFFFFFFFFFFFF5C
:10447000FFFFFFFFFFFFFFFFFFFFFFFFFFFFFFFF4C
:10448000FFFFFFFFFFFFFFFF5DEF159D4F636C42D6
:104490000A328829461925194521E8318E6B38C61C
:1044A000FFFFFFFFFFFFFFFFFFFFFFFFFFFFFFFF1C
:1044B000FFFFFFFFFFFFFFFFFFFFFFFFFFFFFFFF0C
:1044C000FFFFFFFFFFFFFFFFFFFFFFFFFFFFFFFFFC
:1044D000FFFFFFFFFFFF36A51053104B51530F4B4B
:1044E0006C3AE93167212519E410A30862008308BA
:1044F000CB529AD6FFFFFFFFFFFFFFFFFFFFFFFF3B
:10450000FFFFFFFFFFFFFFFFFFFFFFFFFFFFFFFFBB
:10451000FFFFFFFFFFFFFFFFFFFFFFFFFFFFFFFFAB
:10452000FFFF3CE77063B363B87CF56311434D3222
:10453000EA29882126190519051904110411E41026
:104540008300A308728CFFFFFFFFFFFFFFFFFFFF49
:10455000FFFFFFFFFFFFFFFFFFFFFFFFFFFFFFFF6B
:10456000FFFFFFFFFFFFFFFFFFFFFFFFFFFFFFFF5B
:10457000DBDE4B3AF042356C544BB1322E2AEB2144
:10458000A92167190519041104110411041104115A
:104590000519E4104200AF73FFFFFFFFFFFFFFFFAD
:1045A000FFFFFFFFFFFFFFFFFFFFFFFFFFFFFFFF1B
:1045B000FFFFFFFFFFFFFFFFFFFFFFFFFFFF5DEFBD
:1045C00009324C32104B8F324F2A2E2ACC198919BE
:1045D00089214719051904110411C410C4100411CC
:1045E00004110411E41042003184FFFFFFFFFFFFBC
:1045F000FFFFFFFFFFFFFFFFFFFFFFFFFFFFFFFFCB
:10460000FFFFFFFFFFFFFFFFFFFFFFFFFFFFEC527A
:1046100047194C320B2AEC21EC210C22915BEE4A1B
:10462000061126190419E410E410A7296621A3082D
:10463000051904110411E4108200F7BDFFFFFFFF0C
:10464000FFFFFFFFFFFFFFFFFFFFFFFFFFFFFFFF7A
:10465000FFFFFFFFFFFFFFFFFFFFFFFF35A5830801
:10466000882188218921AA218A216B42718CFFFF30
:10467000728C83080411C4082942FBDE5DEFEC5AFA
:1046800083080411041104118308E831DFFFFFFFE0
:10469000FFFFFFFFFFFFFFFFFFFFFFFFFFFFFFFF2A
:1046A000FFFFFFFFFFFFFFFFFFFFBEF7C731C41093
:1046B0002519261947194719A8298A52284A55AD9C
:1046C000FFFFE831A30805194D6B4D6BFFFF7DEF30
:1046D0004521C410041104110411620076ADFFFFDE
:1046E000FFFFFFFFFFFFFFFFFFFFFFFFFFFFFFFFDA
:1046F000FFFFFFFFFFFFFFFFFFFF96B56200041102
:10470000041905110519C4088B4AB6B55DEFF7BD4C
:10471000FFFF8E6B62002942AA5A0842FFFFFFFF8B
:10472000CC528308041104110411A308AD52FFFFF9
:10473000FFFFFFFFFFFFFFFFFFFFFFFFFFFFFFFF89
:104740001CE7FFFFFFFFFFFFFFFF4E636200041146
:1047500004110411E41062008E63FFFFFFFFFFFFEE
:10476000FFFFCF730100F39C2C6396B5FFFFFFFFA3
:104770002D5B8300041104110411E41067213DEF47
:10478000FFFFFFFFFFFFFFFFFFFFF8BDB7B59EEF85
:10479000CB52B394FFFFFFFFDFFFE831A308041102
:1047A000041104110411A3084942FFF7FFF7FFFFAA
:1047B000FFFF6A4A01007284FFFFFFFFFFF7DFEF90
:1047C000093AA3080411041104110411051118BEBB
:1047D000FFFFFFFFFFFFFFFFFFFFF07B6200E831FD
:1047E000C731410035A5FFFF5DEF4621C41004111C
:1047F000041104110411E410A308769DFFF7FFFFD4
:10480000B7ADA308A308C7319EE7FFF7FFF776A56A
:10481000A308E4100411041104110511051135A5B4
:10482000FFFFFFFFFFFFFFFFFFFFDBDEA729830086
:10483000C410C410C4101CE79EEF0511E41004114D
:104840000411041104110419C408E510D16BD16BD3
:10485000C5086400A50843002B32779DB384251951
:10486000C410041104110411041125192609359DE1
:10487000FFFFFFFFFFFFFFFFFFFFFFFFAF736200C0
:104880000419051982000D5B8E9B6210051104113D
:1048900004110419E41085000511C439815A407BC4
:1048A000229C43AC03A4839B82728249C218A40059
:1048B000C500E41004190411051947196711EC5AD1
:1048C000BEFFFFFFFFFFFFFFFFFFDFFFDBDEC410C8
:1048D000E41004110511A41801C08388E40005192F
:1048E0000419C5084421438323D542FEE4FE27FF73
:1048F00007FFA4FE64FE03FEA3FDE2FC42EC83B3CB
:104900002462E510C40804192619A819872100900B
:10491000D3BCFFFFFFFFFFFFFFFFDFFFFFFF107CA8
:10492000420005190511832801D044F8A348E4008A
:10493000C508445A02EDE2FD02FE66FE74FFB8FFB0
:1049400073FFE7F6A6F645F6A4F5C3FC62FCC2FCCD
:10495000C2FCE3CBC449061188198701A49001F871
:10496000EC9AFFFFFFFFFFFFFFFFFFFFFFFFBEF718
:10497000E83183000509824001C023F885F0A3488F
:10498000A400445A02FD23CCC2DC04FE28FE48F6F3
:1049900046F624F6E4F564FDE3FC62FCC2FC02E4A6
:1049A00002DCE2FCA47A48016701C47824F802F82A
:1049B00084B07DE7FFFFFFFFFFFFFFFFFFFFFFFF6B
:1049C000DBDE2519A300C43802E022D844F8A6F89B
:1049D000A4786300432183728339829B21F561FDB2
:1049E00022FDE2FCA2FC42FC42FC42FC22AB8341E1
:1049F000C392045226012519A49844F823F802F81A
:104A0000A4D09EEFFFFFFFFFFFFFFFFFFFFFFFFFB1
:104A1000FFFF9AD68729A50043B822F823E065F85E
:104A2000E8F807C983484200A30084006329A27AFA
:104A300062B3A2CB62D302BB828A8339A400E500B1
:104A4000E500E508C46064D844F824F823F802F8C7
:104A50008388DBC6FFFFFFFFFFFFFFFFFFFFFFFFB6
:104A6000FFFFFFFF3DE7505B083123E843F844F0C8
:104A700065F809F9ABF989D10689A3484218020003
:104A8000420061008200620062008300A320C450E3
:104A9000A58885D865F844F844F823F823F803D0AE
:104AA0008210C7295DEFFFFFFFFFFFFFFFFFFFFF42
:104AB000FFFFFFFFFFFFFFFF6C32A53802D823F88E
:104AC00065F866F8A7F84AF90CFA4DFA4CEA0BD2E9
:104AD000A9B968B147A927B107B907D1E7E8C7F86D
:104AE000A7F865F865F844F823F803F802D0A3287E
:104AF0000509C408EC5AFFFFFFFFFFFFFFFFFFFFA0
:104B0000FFFFFFFFFFFFFBDE0519C400A741E6C062
:104B100003F886F8A7F887F886F8C7F829F98AF91C
:104B2000ABF9ABF98BF96AF929F908F9C7F8A6F8D6
:104B300086F865F864F823F802F006B12529E40048
:104B4000E41025192519149DFFFFFFFFFFFFFFFF4C
:104B5000FFFFFFFFFFFF96AD620082083595BACEDA
:104B60008BA244D025F887F8A7F8C7F8A7F887F8EC
:104B700086F886F886F887F8A7F8A7F8A6F885F8E3
:104B800065F864F824F064B80D93BBB6CF6383086E
:104B90000411E4106621493A5DEFFFFFFFFFFFFFBC
:104BA000FFFFFFFFFFFFD3944200E410BBCEFFFFE7
:104BB000BEE776B5CCAA07C145E045F846F866F8E9
:104BC00086F886F886F886F865F845F865F865E8A9
:104BD00044D043A8018882903CD7FFEF55958308C5
:104BE0000411041105194619B394FFFFFFFFFFFFDD
:104BF000FFFFFFFFFFFFB394410086215DDFFFFF52
:104C0000FFFFFFFFDFE77AC6D3B44EB32AC268D1F5
:104C1000E6E0A6E8A5E8A5E8E6D888C906A922A89E
:104C200002A800A000C800D8F7E5FFE7F8ADC4105F
:104C3000E4100411E41005118B4AFFFFFFFFFFFF92
:104C4000FFFFFFFFFFFF55A54100A7295DDFFFF72D
:104C5000FFFFFFFFFFFFFFFFFFFFFFEF7DDFDBCE6B
:104C600059CEF8CDD7CDF7C579CEFBBEABA203F0B8
:104C700045F842D043E800F072D4FFDF39AEE410CB
:104C8000E4100411E41005118729FFFFFFFFFFFF67
:104C9000FFFFFFFFFFFF59CE830846211CD7FFF718
:104CA000FFFFFFFFFFFFFFFFFFFFFFFFFFFFFFFF14
:104CB000FFFFFFFFFFFFFFFFFFFFFFEF8BBA04F8CF
:104CC00045F862E044F000F88EDBFFDFF8A5C41081
:104CD000E410E4100411E4102519FFFFFFFFFFFFAB
:104CE000FFFFFFFFFFFFBEF78729830839B6FFF7F5
:104CF000DFF7FFFFFFFFFFFFFFFFFFFFFFFFFFFFEC
:104D0000FFFFFFFFFFFFFFFFFFFFBEE74ABA03F809
:104D100045F864F844F800F86EE3FFD7F48C830894
:104D20000411E410E410E4100519FFFFFFFFFFFF7A
:104D3000FFFFFFFFFFFFFFFFEF7300007284FFEF35
:104D4000BEEFDFFFFFFFFFFFFFFFFFFFFFFFFFFFE4
:104D5000FFFFFFFFFFFFFFFFFFFFDFE78BBA03F857
:104D600045F845F823F800F8D3D4FFD74E5B21006F
:104D7000293A55A58308C4102519FFFFFFFFFFFF3F
:104D8000FFFFFFFFFFFFFFFFFBDEA308E8319EDF11
:104D90009EE7BFEFFFFFFFFFFFFFFFFFFFFFFFFFEC
:104DA000FFFFFFFFFFFFFFFFFFFFFFF751BC02E028
:104DB00003F803F043E0ECC27ECFFCBE46212100A5
:104DC000D394FFFF518400008729FFFFFFFFFFFFFF
:104DD000FFFFFFFFFFFFFFFFFFFF51840000F48C88
:104DE000FFEF9EE7BFEFDFFFFFFFFFFFFFFFFFFFCC
:104DF000FFFFFFFFFFFFFFFFFFFFFFFF3DDF55BD91
:104E000052BC72BCB7B55DC7FFDFF06B0000093A5A
:104E1000BFF7FFFFFFFF149D55A5FFFFFFFFFFFF3B
:104E2000FFFFFFFFFFFFFFFFFFFFFFFFAC4AA408EC
:104E3000BBBEDFE77EE7BEEFDFF7DFFFFFFFFFFF71
:104E4000FFFFFFFFFFFFFFFFFFFFDFFFDFF7FFEFCA
:104E5000DFDFBFD79ED7DFDFD8A583082611DBD6DB
:104E6000FFFFFFFFFFFFFFFFFFFFFFFFFFFFFFFF52
:104E7000FFFFFFFFFFFFFFFFFFFF79EE8BDC21311C
:104E8000A9213DCFBFDF7EDF9EE7BEEFBFEFDFF79B
:104E9000DFF7DFF7DFF7DFF7BFEFBEEF9EE77EDF7D
:104EA0005ED75ED7DFDF9AB626194208EDA3BFFFB3
:104EB000FFFFFFFFFFFFFFFFFFFFFFFFFFFFFFFF02
:104EC000FFFFFFFFFFFFFFFF74DDC0DB00FE42EED0
:104ED000024289217BB6DFDF7ED77EDF7EDF9EE761
:104EE0009EE79EE79EE79EE77EDF7EDF5DD75DD78C
:104EF0009EDFFFE7F8A50711E31802C560FDE6D3C2
:104F0000DBEEFFFFFFFFFFFFFFFFFFFFFFFFFFFFE6
:104F1000FFFFFFFFFFFF9EF784BAC1FC42FE82FE47
:104F2000A2FE8183452174745EC7DFDF7ED75ED722
:104F30005DD75ED75ED75DD75DD75ED79EDFFFE7D3
:104F40003DC7F1638408425226E629FF86FEE0F35E
:104F50006AC3FFFFFFFFFFFFFFFFFFFFFFFFFFFF32
:104F6000FFFFFFFFFFFF18DEC1D2A2FD22FE42FEBF
:104F700042FE62FEE2D4416A494253743BA63EC7F8
:104F8000BFD7BFD7BFD7BFDFBFD73EC71AA6F26311
:104F9000A729824122B462FE83FEAAFE0FFF67FDAD
:104FA00063BA3CEFFFFFFFFFFFFFFFFFFFFFFFFFC5
:104FB000FFFFFFFFFFFF9AE680D221FDC2FDE2F571
:104FC000C2F582F582FD62FD61DC219B846AE96A9B
:104FD0002C63AF6311746E632C63895A0452817A17
:104FE000C2CBE2FC62FD82FDC2FDC2FDE4FD24FDF8
:104FF00062CA1CE7FFFFFFFFFFFFFFFFFFFFFFFF8E
:10500000FFFFFFFFFFFFFFFFB1CC81D2C0F3C1FC68
:1050100002FD02FDE2FCC2FCC2FC81FC80FBC0C9B7
:10502000A48135AD59CE719C218100DAA1FB82FCAF
:10503000A2FC82FCA2FC02FD22FDE2FC00FC60DA84
:1050400090CCFFFFFFFFFFFFFFFFFFFFFFFFFFFF12
:10505000FFFFFFFFFFFFFFFFFFFF59DE0DC406CB81
:10506000E4D203DB03DBE3DAC3D2A4C209B3D2BCCC
:105070009EF7FFFFFFFFFFFFFBE60EB4A6BA83D249
:10508000E3E202EB22EB22E303DBE4D26AC3B6D510
:10509000FFFFFFFFFFFFFFFFFFFF0000526F746184
:1050A00074696F6E3A32373000000000526F7461DD
:1050B00074696F6E3A31383000000000526F7461CD
:1050C00074696F6E3A393000526F746174696F6E33
:1050D0003A300000F45000080000002020000000DA
:1050E000C40100081451000820000020100700002F
:1050F000E001000800F8E0071F00E0FF1FF80000D3
:105100000100000010000000000000000024F40076
:04511000000000009B
:040000050800018965
:00000001FF
